{
  "contractName": "LandNFT",
  "abi": [
    {
      "inputs": [],
      "stateMutability": "nonpayable",
      "type": "constructor"
    },
    {
      "anonymous": false,
      "inputs": [
        {
          "indexed": true,
          "internalType": "address",
          "name": "owner",
          "type": "address"
        },
        {
          "indexed": true,
          "internalType": "address",
          "name": "approved",
          "type": "address"
        },
        {
          "indexed": true,
          "internalType": "uint256",
          "name": "tokenId",
          "type": "uint256"
        }
      ],
      "name": "Approval",
      "type": "event"
    },
    {
      "anonymous": false,
      "inputs": [
        {
          "indexed": true,
          "internalType": "address",
          "name": "owner",
          "type": "address"
        },
        {
          "indexed": true,
          "internalType": "address",
          "name": "operator",
          "type": "address"
        },
        {
          "indexed": false,
          "internalType": "bool",
          "name": "approved",
          "type": "bool"
        }
      ],
      "name": "ApprovalForAll",
      "type": "event"
    },
    {
      "anonymous": false,
      "inputs": [
        {
          "indexed": true,
          "internalType": "address",
          "name": "previousOwner",
          "type": "address"
        },
        {
          "indexed": true,
          "internalType": "address",
          "name": "newOwner",
          "type": "address"
        }
      ],
      "name": "OwnershipTransferred",
      "type": "event"
    },
    {
      "anonymous": false,
      "inputs": [
        {
          "indexed": true,
          "internalType": "address",
          "name": "from",
          "type": "address"
        },
        {
          "indexed": true,
          "internalType": "address",
          "name": "to",
          "type": "address"
        },
        {
          "indexed": true,
          "internalType": "uint256",
          "name": "tokenId",
          "type": "uint256"
        }
      ],
      "name": "Transfer",
      "type": "event"
    },
    {
      "inputs": [
        {
          "internalType": "address",
          "name": "to",
          "type": "address"
        },
        {
          "internalType": "uint256",
          "name": "tokenId",
          "type": "uint256"
        }
      ],
      "name": "approve",
      "outputs": [],
      "stateMutability": "nonpayable",
      "type": "function"
    },
    {
      "inputs": [
        {
          "internalType": "address",
          "name": "owner",
          "type": "address"
        }
      ],
      "name": "balanceOf",
      "outputs": [
        {
          "internalType": "uint256",
          "name": "",
          "type": "uint256"
        }
      ],
      "stateMutability": "view",
      "type": "function",
      "constant": true
    },
    {
      "inputs": [
        {
          "internalType": "uint256",
          "name": "tokenId",
          "type": "uint256"
        }
      ],
      "name": "burn",
      "outputs": [],
      "stateMutability": "nonpayable",
      "type": "function"
    },
    {
      "inputs": [
        {
          "internalType": "uint256",
          "name": "tokenId",
          "type": "uint256"
        }
      ],
      "name": "getApproved",
      "outputs": [
        {
          "internalType": "address",
          "name": "",
          "type": "address"
        }
      ],
      "stateMutability": "view",
      "type": "function",
      "constant": true
    },
    {
      "inputs": [
        {
          "internalType": "address",
          "name": "owner",
          "type": "address"
        },
        {
          "internalType": "address",
          "name": "operator",
          "type": "address"
        }
      ],
      "name": "isApprovedForAll",
      "outputs": [
        {
          "internalType": "bool",
          "name": "",
          "type": "bool"
        }
      ],
      "stateMutability": "view",
      "type": "function",
      "constant": true
    },
    {
      "inputs": [],
      "name": "name",
      "outputs": [
        {
          "internalType": "string",
          "name": "",
          "type": "string"
        }
      ],
      "stateMutability": "view",
      "type": "function",
      "constant": true
    },
    {
      "inputs": [],
      "name": "owner",
      "outputs": [
        {
          "internalType": "address",
          "name": "",
          "type": "address"
        }
      ],
      "stateMutability": "view",
      "type": "function",
      "constant": true
    },
    {
      "inputs": [
        {
          "internalType": "uint256",
          "name": "tokenId",
          "type": "uint256"
        }
      ],
      "name": "ownerOf",
      "outputs": [
        {
          "internalType": "address",
          "name": "",
          "type": "address"
        }
      ],
      "stateMutability": "view",
      "type": "function",
      "constant": true
    },
    {
      "inputs": [],
      "name": "renounceOwnership",
      "outputs": [],
      "stateMutability": "nonpayable",
      "type": "function"
    },
    {
      "inputs": [
        {
          "internalType": "address",
          "name": "from",
          "type": "address"
        },
        {
          "internalType": "address",
          "name": "to",
          "type": "address"
        },
        {
          "internalType": "uint256",
          "name": "tokenId",
          "type": "uint256"
        }
      ],
      "name": "safeTransferFrom",
      "outputs": [],
      "stateMutability": "nonpayable",
      "type": "function"
    },
    {
      "inputs": [
        {
          "internalType": "address",
          "name": "from",
          "type": "address"
        },
        {
          "internalType": "address",
          "name": "to",
          "type": "address"
        },
        {
          "internalType": "uint256",
          "name": "tokenId",
          "type": "uint256"
        },
        {
          "internalType": "bytes",
          "name": "data",
          "type": "bytes"
        }
      ],
      "name": "safeTransferFrom",
      "outputs": [],
      "stateMutability": "nonpayable",
      "type": "function"
    },
    {
      "inputs": [
        {
          "internalType": "address",
          "name": "operator",
          "type": "address"
        },
        {
          "internalType": "bool",
          "name": "approved",
          "type": "bool"
        }
      ],
      "name": "setApprovalForAll",
      "outputs": [],
      "stateMutability": "nonpayable",
      "type": "function"
    },
    {
      "inputs": [
        {
          "internalType": "bytes4",
          "name": "interfaceId",
          "type": "bytes4"
        }
      ],
      "name": "supportsInterface",
      "outputs": [
        {
          "internalType": "bool",
          "name": "",
          "type": "bool"
        }
      ],
      "stateMutability": "view",
      "type": "function",
      "constant": true
    },
    {
      "inputs": [],
      "name": "symbol",
      "outputs": [
        {
          "internalType": "string",
          "name": "",
          "type": "string"
        }
      ],
      "stateMutability": "view",
      "type": "function",
      "constant": true
    },
    {
      "inputs": [
        {
          "internalType": "uint256",
          "name": "tokenId",
          "type": "uint256"
        }
      ],
      "name": "tokenURI",
      "outputs": [
        {
          "internalType": "string",
          "name": "",
          "type": "string"
        }
      ],
      "stateMutability": "view",
      "type": "function",
      "constant": true
    },
    {
      "inputs": [
        {
          "internalType": "address",
          "name": "from",
          "type": "address"
        },
        {
          "internalType": "address",
          "name": "to",
          "type": "address"
        },
        {
          "internalType": "uint256",
          "name": "tokenId",
          "type": "uint256"
        }
      ],
      "name": "transferFrom",
      "outputs": [],
      "stateMutability": "nonpayable",
      "type": "function"
    },
    {
      "inputs": [
        {
          "internalType": "address",
          "name": "newOwner",
          "type": "address"
        }
      ],
      "name": "transferOwnership",
      "outputs": [],
      "stateMutability": "nonpayable",
      "type": "function"
    },
    {
      "inputs": [
        {
          "internalType": "address",
          "name": "to",
          "type": "address"
        },
        {
          "internalType": "uint256",
          "name": "_id",
          "type": "uint256"
        }
      ],
      "name": "safeMint",
      "outputs": [],
      "stateMutability": "nonpayable",
      "type": "function"
    },
    {
      "inputs": [
        {
          "internalType": "uint256",
          "name": "_id",
          "type": "uint256"
        }
      ],
      "name": "landDetails",
      "outputs": [
        {
          "components": [
            {
              "internalType": "uint256",
              "name": "id",
              "type": "uint256"
            },
            {
              "internalType": "address",
              "name": "owner",
              "type": "address"
            },
            {
              "internalType": "uint256",
              "name": "mongoId",
              "type": "uint256"
            }
          ],
          "internalType": "struct LandNFT.landNFT",
          "name": "",
          "type": "tuple"
        }
      ],
      "stateMutability": "view",
      "type": "function",
      "constant": true
    },
    {
      "inputs": [
        {
          "internalType": "address",
          "name": "_addr",
          "type": "address"
        }
      ],
      "name": "balOf",
      "outputs": [
        {
          "internalType": "uint256",
          "name": "",
          "type": "uint256"
        }
      ],
      "stateMutability": "view",
      "type": "function",
      "constant": true
    },
    {
      "inputs": [
        {
          "internalType": "uint256",
          "name": "_tokenId",
          "type": "uint256"
        }
      ],
      "name": "deleteNFT",
      "outputs": [],
      "stateMutability": "nonpayable",
      "type": "function"
    },
    {
      "inputs": [
        {
          "internalType": "address",
          "name": "to",
          "type": "address"
        },
        {
          "internalType": "uint256",
          "name": "_tokenId",
          "type": "uint256"
        }
      ],
      "name": "safeTransfer",
      "outputs": [],
      "stateMutability": "nonpayable",
      "type": "function"
    }
  ],
  "bytecode": "0x60806040523480156200001157600080fd5b506040518060400160405280600781526020017f4c616e644e4654000000000000000000000000000000000000000000000000008152506040518060400160405280600481526020017f4c4e46540000000000000000000000000000000000000000000000000000000081525081600090816200008f919062000453565b508060019081620000a1919062000453565b505050620000c4620000b86200010b60201b60201c565b6200011360201b60201c565b33600760006101000a81548173ffffffffffffffffffffffffffffffffffffffff021916908373ffffffffffffffffffffffffffffffffffffffff1602179055506200053a565b600033905090565b6000600660009054906101000a900473ffffffffffffffffffffffffffffffffffffffff16905081600660006101000a81548173ffffffffffffffffffffffffffffffffffffffff021916908373ffffffffffffffffffffffffffffffffffffffff1602179055508173ffffffffffffffffffffffffffffffffffffffff168173ffffffffffffffffffffffffffffffffffffffff167f8be0079c531659141344cd1fd0a4f28419497f9722a3daafe3b4186f6b6457e060405160405180910390a35050565b600081519050919050565b7f4e487b7100000000000000000000000000000000000000000000000000000000600052604160045260246000fd5b7f4e487b7100000000000000000000000000000000000000000000000000000000600052602260045260246000fd5b600060028204905060018216806200025b57607f821691505b60208210810362000271576200027062000213565b5b50919050565b60008190508160005260206000209050919050565b60006020601f8301049050919050565b600082821b905092915050565b600060088302620002db7fffffffffffffffffffffffffffffffffffffffffffffffffffffffffffffffff826200029c565b620002e786836200029c565b95508019841693508086168417925050509392505050565b6000819050919050565b6000819050919050565b6000620003346200032e6200032884620002ff565b62000309565b620002ff565b9050919050565b6000819050919050565b620003508362000313565b620003686200035f826200033b565b848454620002a9565b825550505050565b600090565b6200037f62000370565b6200038c81848462000345565b505050565b5b81811015620003b457620003a860008262000375565b60018101905062000392565b5050565b601f8211156200040357620003cd8162000277565b620003d8846200028c565b81016020851015620003e8578190505b62000400620003f7856200028c565b83018262000391565b50505b505050565b600082821c905092915050565b6000620004286000198460080262000408565b1980831691505092915050565b600062000443838362000415565b9150826002028217905092915050565b6200045e82620001d9565b67ffffffffffffffff8111156200047a5762000479620001e4565b5b62000486825462000242565b62000493828285620003b8565b600060209050601f831160018114620004cb5760008415620004b6578287015190505b620004c2858262000435565b86555062000532565b601f198416620004db8662000277565b60005b828110156200050557848901518255600182019150602085019450602081019050620004de565b8683101562000525578489015162000521601f89168262000415565b8355505b6001600288020188555050505b505050505050565b6133e3806200054a6000396000f3fe608060405234801561001057600080fd5b50600436106101425760003560e01c8063715018a6116100b8578063a22cb4651161007c578063a22cb46514610373578063b88d4fde1461038f578063c87b56dd146103ab578063e985e9c5146103db578063f2fde38b1461040b578063f687ed571461042757610142565b8063715018a6146102e15780638da5cb5b146102eb57806395d89b4114610309578063a0d5f1aa14610327578063a14481941461035757610142565b806323b872dd1161010a57806323b872dd14610211578063423f6cef1461022d57806342842e0e1461024957806342966c68146102655780636352211e1461028157806370a08231146102b157610142565b806301ffc9a71461014757806306fdde031461017757806307f4d25c14610195578063081812fc146101c5578063095ea7b3146101f5575b600080fd5b610161600480360381019061015c91906122d2565b610443565b60405161016e919061231a565b60405180910390f35b61017f610525565b60405161018c91906123c5565b60405180910390f35b6101af60048036038101906101aa919061241d565b6105b7565b6040516101bc91906124dc565b60405180910390f35b6101df60048036038101906101da919061241d565b61064e565b6040516101ec9190612506565b60405180910390f35b61020f600480360381019061020a919061254d565b610694565b005b61022b6004803603810190610226919061258d565b6107ab565b005b6102476004803603810190610242919061254d565b61080b565b005b610263600480360381019061025e919061258d565b610995565b005b61027f600480360381019061027a919061241d565b6109b5565b005b61029b6004803603810190610296919061241d565b610a11565b6040516102a89190612506565b60405180910390f35b6102cb60048036038101906102c691906125e0565b610a97565b6040516102d8919061261c565b60405180910390f35b6102e9610b4e565b005b6102f3610b62565b6040516103009190612506565b60405180910390f35b610311610b8c565b60405161031e91906123c5565b60405180910390f35b610341600480360381019061033c91906125e0565b610c1e565b60405161034e919061261c565b60405180910390f35b610371600480360381019061036c919061254d565b610c67565b005b61038d60048036038101906103889190612663565b610e60565b005b6103a960048036038101906103a491906127d8565b610e76565b005b6103c560048036038101906103c0919061241d565b610ed8565b6040516103d291906123c5565b60405180910390f35b6103f560048036038101906103f0919061285b565b610f40565b604051610402919061231a565b60405180910390f35b610425600480360381019061042091906125e0565b610fd4565b005b610441600480360381019061043c919061241d565b611057565b005b60007f80ac58cd000000000000000000000000000000000000000000000000000000007bffffffffffffffffffffffffffffffffffffffffffffffffffffffff1916827bffffffffffffffffffffffffffffffffffffffffffffffffffffffff1916148061050e57507f5b5e139f000000000000000000000000000000000000000000000000000000007bffffffffffffffffffffffffffffffffffffffffffffffffffffffff1916827bffffffffffffffffffffffffffffffffffffffffffffffffffffffff1916145b8061051e575061051d82611140565b5b9050919050565b606060008054610534906128ca565b80601f0160208091040260200160405190810160405280929190818152602001828054610560906128ca565b80156105ad5780601f10610582576101008083540402835291602001916105ad565b820191906000526020600020905b81548152906001019060200180831161059057829003601f168201915b5050505050905090565b6105bf61222f565b600c6000838152602001908152602001600020604051806060016040529081600082015481526020016001820160009054906101000a900473ffffffffffffffffffffffffffffffffffffffff1673ffffffffffffffffffffffffffffffffffffffff1673ffffffffffffffffffffffffffffffffffffffff1681526020016002820154815250509050919050565b6000610659826111aa565b6004600083815260200190815260200160002060009054906101000a900473ffffffffffffffffffffffffffffffffffffffff169050919050565b600061069f82610a11565b90508073ffffffffffffffffffffffffffffffffffffffff168373ffffffffffffffffffffffffffffffffffffffff160361070f576040517f08c379a00000000000000000000000000000000000000000000000000000000081526004016107069061296d565b60405180910390fd5b8073ffffffffffffffffffffffffffffffffffffffff1661072e6111f5565b73ffffffffffffffffffffffffffffffffffffffff16148061075d575061075c816107576111f5565b610f40565b5b61079c576040517f08c379a0000000000000000000000000000000000000000000000000000000008152600401610793906129ff565b60405180910390fd5b6107a683836111fd565b505050565b6107bc6107b66111f5565b826112b6565b6107fb576040517f08c379a00000000000000000000000000000000000000000000000000000000081526004016107f290612a91565b60405180910390fd5b61080683838361134b565b505050565b803373ffffffffffffffffffffffffffffffffffffffff1661082c82610a11565b73ffffffffffffffffffffffffffffffffffffffff1614610882576040517f08c379a000000000000000000000000000000000000000000000000000000000815260040161087990612b23565b60405180910390fd5b61088d338484610995565b82600c600084815260200190815260200160002060010160006101000a81548173ffffffffffffffffffffffffffffffffffffffff021916908373ffffffffffffffffffffffffffffffffffffffff1602179055506001600b60008573ffffffffffffffffffffffffffffffffffffffff1673ffffffffffffffffffffffffffffffffffffffff16815260200190815260200160002060008282546109329190612b72565b925050819055506001600b60003373ffffffffffffffffffffffffffffffffffffffff1673ffffffffffffffffffffffffffffffffffffffff16815260200190815260200160002060008282546109899190612ba6565b92505081905550505050565b6109b083838360405180602001604052806000815250610e76565b505050565b6109c66109c06111f5565b826112b6565b610a05576040517f08c379a00000000000000000000000000000000000000000000000000000000081526004016109fc90612a91565b60405180910390fd5b610a0e81611644565b50565b600080610a1d83611650565b9050600073ffffffffffffffffffffffffffffffffffffffff168173ffffffffffffffffffffffffffffffffffffffff1603610a8e576040517f08c379a0000000000000000000000000000000000000000000000000000000008152600401610a8590612c26565b60405180910390fd5b80915050919050565b60008073ffffffffffffffffffffffffffffffffffffffff168273ffffffffffffffffffffffffffffffffffffffff1603610b07576040517f08c379a0000000000000000000000000000000000000000000000000000000008152600401610afe90612cb8565b60405180910390fd5b600360008373ffffffffffffffffffffffffffffffffffffffff1673ffffffffffffffffffffffffffffffffffffffff168152602001908152602001600020549050919050565b610b5661168d565b610b60600061170b565b565b6000600660009054906101000a900473ffffffffffffffffffffffffffffffffffffffff16905090565b606060018054610b9b906128ca565b80601f0160208091040260200160405190810160405280929190818152602001828054610bc7906128ca565b8015610c145780601f10610be957610100808354040283529160200191610c14565b820191906000526020600020905b815481529060010190602001808311610bf757829003601f168201915b5050505050905090565b6000600b60008373ffffffffffffffffffffffffffffffffffffffff1673ffffffffffffffffffffffffffffffffffffffff168152602001908152602001600020549050919050565b600760009054906101000a900473ffffffffffffffffffffffffffffffffffffffff1673ffffffffffffffffffffffffffffffffffffffff163373ffffffffffffffffffffffffffffffffffffffff1614610cf7576040517f08c379a0000000000000000000000000000000000000000000000000000000008152600401610cee90612d4a565b60405180910390fd5b6000610d03600d6117d1565b9050610d0f600d6117df565b610d1983826117f5565b8060086000018190555082600860010160006101000a81548173ffffffffffffffffffffffffffffffffffffffff021916908373ffffffffffffffffffffffffffffffffffffffff160217905550816008600201819055506008600c6000838152602001908152602001600020600082015481600001556001820160009054906101000a900473ffffffffffffffffffffffffffffffffffffffff168160010160006101000a81548173ffffffffffffffffffffffffffffffffffffffff021916908373ffffffffffffffffffffffffffffffffffffffff160217905550600282015481600201559050506001600b60008573ffffffffffffffffffffffffffffffffffffffff1673ffffffffffffffffffffffffffffffffffffffff1681526020019081526020016000206000828254610e549190612b72565b92505081905550505050565b610e72610e6b6111f5565b8383611813565b5050565b610e87610e816111f5565b836112b6565b610ec6576040517f08c379a0000000000000000000000000000000000000000000000000000000008152600401610ebd90612a91565b60405180910390fd5b610ed28484848461197f565b50505050565b6060610ee3826111aa565b6000610eed6119db565b90506000815111610f0d5760405180602001604052806000815250610f38565b80610f17846119f2565b604051602001610f28929190612da6565b6040516020818303038152906040525b915050919050565b6000600560008473ffffffffffffffffffffffffffffffffffffffff1673ffffffffffffffffffffffffffffffffffffffff16815260200190815260200160002060008373ffffffffffffffffffffffffffffffffffffffff1673ffffffffffffffffffffffffffffffffffffffff16815260200190815260200160002060009054906101000a900460ff16905092915050565b610fdc61168d565b600073ffffffffffffffffffffffffffffffffffffffff168173ffffffffffffffffffffffffffffffffffffffff160361104b576040517f08c379a000000000000000000000000000000000000000000000000000000000815260040161104290612e3c565b60405180910390fd5b6110548161170b565b50565b803373ffffffffffffffffffffffffffffffffffffffff1661107882610a11565b73ffffffffffffffffffffffffffffffffffffffff16146110ce576040517f08c379a00000000000000000000000000000000000000000000000000000000081526004016110c590612b23565b60405180910390fd5b60006110d983610a11565b90506001600b60008373ffffffffffffffffffffffffffffffffffffffff1673ffffffffffffffffffffffffffffffffffffffff168152602001908152602001600020600082825461112b9190612ba6565b9250508190555061113b83611644565b505050565b60007f01ffc9a7000000000000000000000000000000000000000000000000000000007bffffffffffffffffffffffffffffffffffffffffffffffffffffffff1916827bffffffffffffffffffffffffffffffffffffffffffffffffffffffff1916149050919050565b6111b381611b52565b6111f2576040517f08c379a00000000000000000000000000000000000000000000000000000000081526004016111e990612c26565b60405180910390fd5b50565b600033905090565b816004600083815260200190815260200160002060006101000a81548173ffffffffffffffffffffffffffffffffffffffff021916908373ffffffffffffffffffffffffffffffffffffffff160217905550808273ffffffffffffffffffffffffffffffffffffffff1661127083610a11565b73ffffffffffffffffffffffffffffffffffffffff167f8c5be1e5ebec7d5bd14f71427d1e84f3dd0314c0f7b2291e5b200ac8c7c3b92560405160405180910390a45050565b6000806112c283610a11565b90508073ffffffffffffffffffffffffffffffffffffffff168473ffffffffffffffffffffffffffffffffffffffff16148061130457506113038185610f40565b5b8061134257508373ffffffffffffffffffffffffffffffffffffffff1661132a8461064e565b73ffffffffffffffffffffffffffffffffffffffff16145b91505092915050565b8273ffffffffffffffffffffffffffffffffffffffff1661136b82610a11565b73ffffffffffffffffffffffffffffffffffffffff16146113c1576040517f08c379a00000000000000000000000000000000000000000000000000000000081526004016113b890612ece565b60405180910390fd5b600073ffffffffffffffffffffffffffffffffffffffff168273ffffffffffffffffffffffffffffffffffffffff1603611430576040517f08c379a000000000000000000000000000000000000000000000000000000000815260040161142790612f60565b60405180910390fd5b61143d8383836001611b93565b8273ffffffffffffffffffffffffffffffffffffffff1661145d82610a11565b73ffffffffffffffffffffffffffffffffffffffff16146114b3576040517f08c379a00000000000000000000000000000000000000000000000000000000081526004016114aa90612ece565b60405180910390fd5b6004600082815260200190815260200160002060006101000a81549073ffffffffffffffffffffffffffffffffffffffff02191690556001600360008573ffffffffffffffffffffffffffffffffffffffff1673ffffffffffffffffffffffffffffffffffffffff168152602001908152602001600020600082825403925050819055506001600360008473ffffffffffffffffffffffffffffffffffffffff1673ffffffffffffffffffffffffffffffffffffffff16815260200190815260200160002060008282540192505081905550816002600083815260200190815260200160002060006101000a81548173ffffffffffffffffffffffffffffffffffffffff021916908373ffffffffffffffffffffffffffffffffffffffff160217905550808273ffffffffffffffffffffffffffffffffffffffff168473ffffffffffffffffffffffffffffffffffffffff167fddf252ad1be2c89b69c2b068fc378daa952ba7f163c4a11628f55a4df523b3ef60405160405180910390a461163f8383836001611cb9565b505050565b61164d81611cbf565b50565b60006002600083815260200190815260200160002060009054906101000a900473ffffffffffffffffffffffffffffffffffffffff169050919050565b6116956111f5565b73ffffffffffffffffffffffffffffffffffffffff166116b3610b62565b73ffffffffffffffffffffffffffffffffffffffff1614611709576040517f08c379a000000000000000000000000000000000000000000000000000000000815260040161170090612fcc565b60405180910390fd5b565b6000600660009054906101000a900473ffffffffffffffffffffffffffffffffffffffff16905081600660006101000a81548173ffffffffffffffffffffffffffffffffffffffff021916908373ffffffffffffffffffffffffffffffffffffffff1602179055508173ffffffffffffffffffffffffffffffffffffffff168173ffffffffffffffffffffffffffffffffffffffff167f8be0079c531659141344cd1fd0a4f28419497f9722a3daafe3b4186f6b6457e060405160405180910390a35050565b600081600001549050919050565b6001816000016000828254019250508190555050565b61180f828260405180602001604052806000815250611e0d565b5050565b8173ffffffffffffffffffffffffffffffffffffffff168373ffffffffffffffffffffffffffffffffffffffff1603611881576040517f08c379a000000000000000000000000000000000000000000000000000000000815260040161187890613038565b60405180910390fd5b80600560008573ffffffffffffffffffffffffffffffffffffffff1673ffffffffffffffffffffffffffffffffffffffff16815260200190815260200160002060008473ffffffffffffffffffffffffffffffffffffffff1673ffffffffffffffffffffffffffffffffffffffff16815260200190815260200160002060006101000a81548160ff0219169083151502179055508173ffffffffffffffffffffffffffffffffffffffff168373ffffffffffffffffffffffffffffffffffffffff167f17307eab39ab6107e8899845ad3d59bd9653f200f220920489ca2b5937696c3183604051611972919061231a565b60405180910390a3505050565b61198a84848461134b565b61199684848484611e68565b6119d5576040517f08c379a00000000000000000000000000000000000000000000000000000000081526004016119cc906130ca565b60405180910390fd5b50505050565b606060405180602001604052806000815250905090565b606060008203611a39576040518060400160405280600181526020017f30000000000000000000000000000000000000000000000000000000000000008152509050611b4d565b600082905060005b60008214611a6b578080611a54906130ea565b915050600a82611a649190613161565b9150611a41565b60008167ffffffffffffffff811115611a8757611a866126ad565b5b6040519080825280601f01601f191660200182016040528015611ab95781602001600182028036833780820191505090505b5090505b60008514611b4657600182611ad29190612ba6565b9150600a85611ae19190613192565b6030611aed9190612b72565b60f81b818381518110611b0357611b026131c3565b5b60200101907effffffffffffffffffffffffffffffffffffffffffffffffffffffffffffff1916908160001a905350600a85611b3f9190613161565b9450611abd565b8093505050505b919050565b60008073ffffffffffffffffffffffffffffffffffffffff16611b7483611650565b73ffffffffffffffffffffffffffffffffffffffff1614159050919050565b6001811115611cb357600073ffffffffffffffffffffffffffffffffffffffff168473ffffffffffffffffffffffffffffffffffffffff1614611c275780600360008673ffffffffffffffffffffffffffffffffffffffff1673ffffffffffffffffffffffffffffffffffffffff1681526020019081526020016000206000828254611c1f9190612ba6565b925050819055505b600073ffffffffffffffffffffffffffffffffffffffff168373ffffffffffffffffffffffffffffffffffffffff1614611cb25780600360008573ffffffffffffffffffffffffffffffffffffffff1673ffffffffffffffffffffffffffffffffffffffff1681526020019081526020016000206000828254611caa9190612b72565b925050819055505b5b50505050565b50505050565b6000611cca82610a11565b9050611cda816000846001611b93565b611ce382610a11565b90506004600083815260200190815260200160002060006101000a81549073ffffffffffffffffffffffffffffffffffffffff02191690556001600360008373ffffffffffffffffffffffffffffffffffffffff1673ffffffffffffffffffffffffffffffffffffffff168152602001908152602001600020600082825403925050819055506002600083815260200190815260200160002060006101000a81549073ffffffffffffffffffffffffffffffffffffffff021916905581600073ffffffffffffffffffffffffffffffffffffffff168273ffffffffffffffffffffffffffffffffffffffff167fddf252ad1be2c89b69c2b068fc378daa952ba7f163c4a11628f55a4df523b3ef60405160405180910390a4611e09816000846001611cb9565b5050565b611e178383611fef565b611e246000848484611e68565b611e63576040517f08c379a0000000000000000000000000000000000000000000000000000000008152600401611e5a906130ca565b60405180910390fd5b505050565b6000611e898473ffffffffffffffffffffffffffffffffffffffff1661220c565b15611fe2578373ffffffffffffffffffffffffffffffffffffffff1663150b7a02611eb26111f5565b8786866040518563ffffffff1660e01b8152600401611ed49493929190613247565b6020604051808303816000875af1925050508015611f1057506040513d601f19601f82011682018060405250810190611f0d91906132a8565b60015b611f92573d8060008114611f40576040519150601f19603f3d011682016040523d82523d6000602084013e611f45565b606091505b506000815103611f8a576040517f08c379a0000000000000000000000000000000000000000000000000000000008152600401611f81906130ca565b60405180910390fd5b805181602001fd5b63150b7a0260e01b7bffffffffffffffffffffffffffffffffffffffffffffffffffffffff1916817bffffffffffffffffffffffffffffffffffffffffffffffffffffffff191614915050611fe7565b600190505b949350505050565b600073ffffffffffffffffffffffffffffffffffffffff168273ffffffffffffffffffffffffffffffffffffffff160361205e576040517f08c379a000000000000000000000000000000000000000000000000000000000815260040161205590613321565b60405180910390fd5b61206781611b52565b156120a7576040517f08c379a000000000000000000000000000000000000000000000000000000000815260040161209e9061338d565b60405180910390fd5b6120b5600083836001611b93565b6120be81611b52565b156120fe576040517f08c379a00000000000000000000000000000000000000000000000000000000081526004016120f59061338d565b60405180910390fd5b6001600360008473ffffffffffffffffffffffffffffffffffffffff1673ffffffffffffffffffffffffffffffffffffffff16815260200190815260200160002060008282540192505081905550816002600083815260200190815260200160002060006101000a81548173ffffffffffffffffffffffffffffffffffffffff021916908373ffffffffffffffffffffffffffffffffffffffff160217905550808273ffffffffffffffffffffffffffffffffffffffff16600073ffffffffffffffffffffffffffffffffffffffff167fddf252ad1be2c89b69c2b068fc378daa952ba7f163c4a11628f55a4df523b3ef60405160405180910390a4612208600083836001611cb9565b5050565b6000808273ffffffffffffffffffffffffffffffffffffffff163b119050919050565b604051806060016040528060008152602001600073ffffffffffffffffffffffffffffffffffffffff168152602001600081525090565b6000604051905090565b600080fd5b600080fd5b60007fffffffff0000000000000000000000000000000000000000000000000000000082169050919050565b6122af8161227a565b81146122ba57600080fd5b50565b6000813590506122cc816122a6565b92915050565b6000602082840312156122e8576122e7612270565b5b60006122f6848285016122bd565b91505092915050565b60008115159050919050565b612314816122ff565b82525050565b600060208201905061232f600083018461230b565b92915050565b600081519050919050565b600082825260208201905092915050565b60005b8381101561236f578082015181840152602081019050612354565b60008484015250505050565b6000601f19601f8301169050919050565b600061239782612335565b6123a18185612340565b93506123b1818560208601612351565b6123ba8161237b565b840191505092915050565b600060208201905081810360008301526123df818461238c565b905092915050565b6000819050919050565b6123fa816123e7565b811461240557600080fd5b50565b600081359050612417816123f1565b92915050565b60006020828403121561243357612432612270565b5b600061244184828501612408565b91505092915050565b612453816123e7565b82525050565b600073ffffffffffffffffffffffffffffffffffffffff82169050919050565b600061248482612459565b9050919050565b61249481612479565b82525050565b6060820160008201516124b0600085018261244a565b5060208201516124c3602085018261248b565b5060408201516124d6604085018261244a565b50505050565b60006060820190506124f1600083018461249a565b92915050565b61250081612479565b82525050565b600060208201905061251b60008301846124f7565b92915050565b61252a81612479565b811461253557600080fd5b50565b60008135905061254781612521565b92915050565b6000806040838503121561256457612563612270565b5b600061257285828601612538565b925050602061258385828601612408565b9150509250929050565b6000806000606084860312156125a6576125a5612270565b5b60006125b486828701612538565b93505060206125c586828701612538565b92505060406125d686828701612408565b9150509250925092565b6000602082840312156125f6576125f5612270565b5b600061260484828501612538565b91505092915050565b612616816123e7565b82525050565b6000602082019050612631600083018461260d565b92915050565b612640816122ff565b811461264b57600080fd5b50565b60008135905061265d81612637565b92915050565b6000806040838503121561267a57612679612270565b5b600061268885828601612538565b92505060206126998582860161264e565b9150509250929050565b600080fd5b600080fd5b7f4e487b7100000000000000000000000000000000000000000000000000000000600052604160045260246000fd5b6126e58261237b565b810181811067ffffffffffffffff82111715612704576127036126ad565b5b80604052505050565b6000612717612266565b905061272382826126dc565b919050565b600067ffffffffffffffff821115612743576127426126ad565b5b61274c8261237b565b9050602081019050919050565b82818337600083830152505050565b600061277b61277684612728565b61270d565b905082815260208101848484011115612797576127966126a8565b5b6127a2848285612759565b509392505050565b600082601f8301126127bf576127be6126a3565b5b81356127cf848260208601612768565b91505092915050565b600080600080608085870312156127f2576127f1612270565b5b600061280087828801612538565b945050602061281187828801612538565b935050604061282287828801612408565b925050606085013567ffffffffffffffff81111561284357612842612275565b5b61284f878288016127aa565b91505092959194509250565b6000806040838503121561287257612871612270565b5b600061288085828601612538565b925050602061289185828601612538565b9150509250929050565b7f4e487b7100000000000000000000000000000000000000000000000000000000600052602260045260246000fd5b600060028204905060018216806128e257607f821691505b6020821081036128f5576128f461289b565b5b50919050565b7f4552433732313a20617070726f76616c20746f2063757272656e74206f776e6560008201527f7200000000000000000000000000000000000000000000000000000000000000602082015250565b6000612957602183612340565b9150612962826128fb565b604082019050919050565b600060208201905081810360008301526129868161294a565b9050919050565b7f4552433732313a20617070726f76652063616c6c6572206973206e6f7420746f60008201527f6b656e206f776e6572206f7220617070726f76656420666f7220616c6c000000602082015250565b60006129e9603d83612340565b91506129f48261298d565b604082019050919050565b60006020820190508181036000830152612a18816129dc565b9050919050565b7f4552433732313a2063616c6c6572206973206e6f7420746f6b656e206f776e6560008201527f72206f7220617070726f76656400000000000000000000000000000000000000602082015250565b6000612a7b602d83612340565b9150612a8682612a1f565b604082019050919050565b60006020820190508181036000830152612aaa81612a6e565b9050919050565b7f4572726f72203a20756e617574686f72697a6564206163636f756e742061646460008201527f726573732e000000000000000000000000000000000000000000000000000000602082015250565b6000612b0d602583612340565b9150612b1882612ab1565b604082019050919050565b60006020820190508181036000830152612b3c81612b00565b9050919050565b7f4e487b7100000000000000000000000000000000000000000000000000000000600052601160045260246000fd5b6000612b7d826123e7565b9150612b88836123e7565b9250828201905080821115612ba057612b9f612b43565b5b92915050565b6000612bb1826123e7565b9150612bbc836123e7565b9250828203905081811115612bd457612bd3612b43565b5b92915050565b7f4552433732313a20696e76616c696420746f6b656e2049440000000000000000600082015250565b6000612c10601883612340565b9150612c1b82612bda565b602082019050919050565b60006020820190508181036000830152612c3f81612c03565b9050919050565b7f4552433732313a2061646472657373207a65726f206973206e6f74206120766160008201527f6c6964206f776e65720000000000000000000000000000000000000000000000602082015250565b6000612ca2602983612340565b9150612cad82612c46565b604082019050919050565b60006020820190508181036000830152612cd181612c95565b9050919050565b7f4572726f72203a20756e617574686f72697a65642061646d696e206163636f7560008201527f6e7420616464726573732e000000000000000000000000000000000000000000602082015250565b6000612d34602b83612340565b9150612d3f82612cd8565b604082019050919050565b60006020820190508181036000830152612d6381612d27565b9050919050565b600081905092915050565b6000612d8082612335565b612d8a8185612d6a565b9350612d9a818560208601612351565b80840191505092915050565b6000612db28285612d75565b9150612dbe8284612d75565b91508190509392505050565b7f4f776e61626c653a206e6577206f776e657220697320746865207a65726f206160008201527f6464726573730000000000000000000000000000000000000000000000000000602082015250565b6000612e26602683612340565b9150612e3182612dca565b604082019050919050565b60006020820190508181036000830152612e5581612e19565b9050919050565b7f4552433732313a207472616e736665722066726f6d20696e636f72726563742060008201527f6f776e6572000000000000000000000000000000000000000000000000000000602082015250565b6000612eb8602583612340565b9150612ec382612e5c565b604082019050919050565b60006020820190508181036000830152612ee781612eab565b9050919050565b7f4552433732313a207472616e7366657220746f20746865207a65726f2061646460008201527f7265737300000000000000000000000000000000000000000000000000000000602082015250565b6000612f4a602483612340565b9150612f5582612eee565b604082019050919050565b60006020820190508181036000830152612f7981612f3d565b9050919050565b7f4f776e61626c653a2063616c6c6572206973206e6f7420746865206f776e6572600082015250565b6000612fb6602083612340565b9150612fc182612f80565b602082019050919050565b60006020820190508181036000830152612fe581612fa9565b9050919050565b7f4552433732313a20617070726f766520746f2063616c6c657200000000000000600082015250565b6000613022601983612340565b915061302d82612fec565b602082019050919050565b6000602082019050818103600083015261305181613015565b9050919050565b7f4552433732313a207472616e7366657220746f206e6f6e20455243373231526560008201527f63656976657220696d706c656d656e7465720000000000000000000000000000602082015250565b60006130b4603283612340565b91506130bf82613058565b604082019050919050565b600060208201905081810360008301526130e3816130a7565b9050919050565b60006130f5826123e7565b91507fffffffffffffffffffffffffffffffffffffffffffffffffffffffffffffffff820361312757613126612b43565b5b600182019050919050565b7f4e487b7100000000000000000000000000000000000000000000000000000000600052601260045260246000fd5b600061316c826123e7565b9150613177836123e7565b92508261318757613186613132565b5b828204905092915050565b600061319d826123e7565b91506131a8836123e7565b9250826131b8576131b7613132565b5b828206905092915050565b7f4e487b7100000000000000000000000000000000000000000000000000000000600052603260045260246000fd5b600081519050919050565b600082825260208201905092915050565b6000613219826131f2565b61322381856131fd565b9350613233818560208601612351565b61323c8161237b565b840191505092915050565b600060808201905061325c60008301876124f7565b61326960208301866124f7565b613276604083018561260d565b8181036060830152613288818461320e565b905095945050505050565b6000815190506132a2816122a6565b92915050565b6000602082840312156132be576132bd612270565b5b60006132cc84828501613293565b91505092915050565b7f4552433732313a206d696e7420746f20746865207a65726f2061646472657373600082015250565b600061330b602083612340565b9150613316826132d5565b602082019050919050565b6000602082019050818103600083015261333a816132fe565b9050919050565b7f4552433732313a20746f6b656e20616c7265616479206d696e74656400000000600082015250565b6000613377601c83612340565b915061338282613341565b602082019050919050565b600060208201905081810360008301526133a68161336a565b905091905056fea26469706673582212202e28d8bf405fb7ef400747716412d98bf6e552d8f616b575e274cc81bec9778364736f6c63430008110033",
  "immutableReferences": {},
  "source": "// SPDX-License-Identifier: MIT\npragma solidity ^0.8.0;\n\nimport \"./ERC721.sol\";\nimport \"./ERC721Burnable.sol\";\nimport \"./Ownable.sol\";\nimport \"./Counters.sol\";\n\ncontract LandNFT is ERC721, ERC721Burnable, Ownable {\n    using Counters for Counters.Counter;\n    address private admin;\n\n    struct landNFT {\n        uint256 id;\n        address owner;\n        uint256 mongoId;\n    }\n    landNFT landnft;\n\n    mapping(address => uint256) private ownership;\n    mapping(uint256 => landNFT) private propDetails;\n\n    Counters.Counter private _tokenIdCounter;\n\n    constructor() ERC721(\"LandNFT\", \"LNFT\") {\n        admin = msg.sender;\n    }\n\n    modifier tokenOwner(uint256 _tokenId) {\n        require(\n            ownerOf(_tokenId) == msg.sender,\n            \"Error : unauthorized account address.\"\n        );\n        _;\n    }\n\n    modifier onlyAdmin() {\n        require(\n            msg.sender == admin,\n            \"Error : unauthorized admin account address.\"\n        );\n        _;\n    }\n\n    //create new NFT for selected land at buyers address directly only by admin account\n    function safeMint(address to, uint256 _id) external onlyAdmin {\n        uint256 tokenId = _tokenIdCounter.current();\n        _tokenIdCounter.increment();\n        _safeMint(to, tokenId);\n        landnft.id = tokenId;\n        landnft.owner = to;\n        landnft.mongoId = _id;\n        propDetails[tokenId] = landnft;\n        ownership[to] += 1;\n    }\n\n    //get details of land with token _id\n    function landDetails(uint256 _id) external view returns (landNFT memory) {\n        return propDetails[_id];\n    }\n\n    //get balance details of user\n    function balOf(address _addr) external view returns (uint256) {\n        return ownership[_addr];\n    }\n\n    // The following functions are overrides required by Solidity.\n    function _burn(uint256 _tokenId) internal override(ERC721) {\n        super._burn(_tokenId);\n    }\n\n    //burn land nft\n    function deleteNFT(uint256 _tokenId) external tokenOwner(_tokenId) {\n        address owner = ownerOf(_tokenId);\n        ownership[owner] -= 1;\n        _burn(_tokenId);\n    }\n\n    //transfer ownership of land NFT\n    function safeTransfer(\n        address to,\n        uint256 _tokenId\n    ) external tokenOwner(_tokenId) {\n        safeTransferFrom(msg.sender, to, _tokenId);\n        propDetails[_tokenId].owner = to;\n        ownership[to] += 1;\n        ownership[msg.sender] -= 1;\n    }\n}\n",
  "sourcePath": "/home/dablu/Documents/Hyperledger besu/Smart contract API/Earth API/blockchain/contracts/LandNFT.sol",
  "compiler": {
    "name": "solc",
    "version": "0.8.17+commit.8df45f5f.Emscripten.clang"
  },
  "schemaVersion": "3.4.11",
  "updatedAt": "2023-03-03T12:07:56.276Z",
  "networkType": "ethereum",
  "devdoc": {
    "kind": "dev",
    "methods": {
      "approve(address,uint256)": {
        "details": "See {IERC721-approve}."
      },
      "balanceOf(address)": {
        "details": "See {IERC721-balanceOf}."
      },
      "burn(uint256)": {
        "details": "Burns `tokenId`. See {ERC721-_burn}. Requirements: - The caller must own `tokenId` or be an approved operator."
      },
      "getApproved(uint256)": {
        "details": "See {IERC721-getApproved}."
      },
      "isApprovedForAll(address,address)": {
        "details": "See {IERC721-isApprovedForAll}."
      },
      "name()": {
        "details": "See {IERC721Metadata-name}."
      },
      "owner()": {
        "details": "Returns the address of the current owner."
      },
      "ownerOf(uint256)": {
        "details": "See {IERC721-ownerOf}."
      },
      "renounceOwnership()": {
        "details": "Leaves the contract without owner. It will not be possible to call `onlyOwner` functions anymore. Can only be called by the current owner. NOTE: Renouncing ownership will leave the contract without an owner, thereby removing any functionality that is only available to the owner."
      },
      "safeTransferFrom(address,address,uint256)": {
        "details": "See {IERC721-safeTransferFrom}."
      },
      "safeTransferFrom(address,address,uint256,bytes)": {
        "details": "See {IERC721-safeTransferFrom}."
      },
      "setApprovalForAll(address,bool)": {
        "details": "See {IERC721-setApprovalForAll}."
      },
      "supportsInterface(bytes4)": {
        "details": "See {IERC165-supportsInterface}."
      },
      "symbol()": {
        "details": "See {IERC721Metadata-symbol}."
      },
      "tokenURI(uint256)": {
        "details": "See {IERC721Metadata-tokenURI}."
      },
      "transferFrom(address,address,uint256)": {
        "details": "See {IERC721-transferFrom}."
      },
      "transferOwnership(address)": {
        "details": "Transfers ownership of the contract to a new account (`newOwner`). Can only be called by the current owner."
      }
    },
    "version": 1
  },
  "userdoc": {
    "kind": "user",
    "methods": {},
    "version": 1
  }
}